:100000000C9468000C9490000C9490000C94900058
:100010000C9490000C9490000C9490000C94900020
:100020000C9490000C9490000C9490000C94900010
:100030000C9490000C9490000C9490000C94900000
:100040000C94F70B0C9490000C94000B0C94320B56
:100050000C9490000C9490000C9490000C949000E0
:100060000C9428020C9490001112131415160A0B0C
:100070000C0D0E0F00010203040500000008000231
:10008000010000030407000000000000000001025E
:100090000408102040800102040810200102040816
:1000A00010200404040404040404020202020202F4
:1000B00003030303030300000000250028002B00B6
:1000C00000000000240027002A0092001604620BA2
:1000D00011241FBECFEFD8E0DEBFCDBF11E0A0E0FE
:1000E000B1E0E6E4FBE102C005900D92AA38B10749
:1000F000D9F723E0AAE8B1E001C01D92AC31B20704
:10010000E1F710E0C0EDD0E004C02297FE010E94AC
:100110008F0DCA3CD107C9F70E94E80B0C94A10DC2
:100120000C9400008F92AF92CF92EF920F931F9298
:100130001F9283E08F9387E0882E96E0A92E25E01A
:10014000C22E34E0E32E00E021E042E06FE38CE9D0
:1001500091E00E9412090F900F900F9048E067E025
:100160008AE891E00F91EF90CF90AF908F900C9430
:100170006005CF93DF938AE891E00E94CC0664E6A5
:100180008AE891E00E946B0561E08AE891E00E94B4
:10019000710646E051E061E08AE891E00E94BD0509
:1001A0008AE891E00E942B0626E040E855E260E0F4
:1001B00070E086E792E00E949E0A20E042E060E163
:1001C0008CE991E00E94A009C3E0D0E08CE991E0C5
:1001D0000E94A5076AEF70E080E090E00E94640C46
:1001E0008CE991E00E94AD076AEF70E080E090E05A
:1001F0000E94640C219751F78CE991E00E94A507B9
:1002000040E060E08CE991E00E94C4076CE071E09E
:100210008CE991E00E94E30B68EE73E080E090E0EF
:100220000E94640C41E060E08CE991E00E94C40708
:100230006AE171E08CE991E00E94E30B60E47FE108
:1002400080E090E00E94640C8CE991E00E94BD0780
:1002500040E060E08CE991E00E94C4076BE271E04D
:100260008CE991E00E94E30B41E060E08CE991E0D1
:100270000E94C4076AE371E08CE991E0DF91CF91BD
:100280000C94E30B0F931F93CF93DF93CDB7DEB79F
:10029000A0970FB6F894DEBF0FBECDBF8AE891E0FD
:1002A0000E94AD05882341F040E2BE016F5F7F4FA1
:1002B0008AE891E00E94B10586E792E00E94BB09BE
:1002C000892B09F164E670E080E090E00E94640C04
:1002D0008CE991E00E94BD0786E792E00E94BB098D
:1002E0001816190684F4E0919C01F0919D0100819B
:1002F000118186E792E00E94D409682F8CE991E091
:10030000F8010995E9CFA0960FB6F894DEBF0FBEAD
:10031000CDBFDF91CF911F910F91089510922202CE
:1003200081E08093200210921F0261E082E10E942E
:10033000340D61E083E10E94340DE9EBF0E080814F
:100340008E7F808380818D7F808388E48093B80056
:1003500085E48093BC0008950F93413208F046C0B5
:10036000909122029111FCCF92E09093220200938F
:1003700020029FEF9093B5011092FA014093F9018A
:10038000FB016BEF71E0DB019A2F961B941718F4B9
:1003900091919D93F9CF1092210290912102880FA3
:1003A000892B8093210280911F02813041F41092A9
:1003B0001F02809121028093BB0085EC01C085EE75
:1003C0008093BC00222321F0809122028230E1F34D
:1003D0008091B5018F3F61F08091B501803251F07D
:1003E0008091B501803341F483E007C081E005C00E
:1003F00080E003C082E001C084E00F910895613283
:1004000098F420912202243089F46093D701FC01F2
:1004100089ED91E0DC012A2F281B261718F4219181
:100420002D93F9CF80E0089581E0089582E008954A
:1004300085ED8093BC008091BC0084FDFCCF1092C0
:100440002202089585EC8093BC0010922202089548
:100450001F920F920FB60F9211242F933F934F9339
:100460005F936F937F938F939F93AF93BF93EF931C
:10047000FF938091B900887F803609F49CC068F5AD
:10048000883209F45BC090F4803109F454C038F428
:10049000882309F4F5C0883009F44DC0F5C08831CF
:1004A00009F44CC0803209F45DC0EEC0803409F418
:1004B00068C048F4803309F455C0883309F0E4C0BB
:1004C0008093B501A8C0803509F44FC0883509F480
:1004D0005DC0883409F0D8C0D5C0883909F4C6C0D9
:1004E000A8F4883709F467C038F4883609F463C083
:1004F000803709F460C0C8C0883809F4B7C08039B3
:1005000009F45FC0803809F0BFC05BC0803B09F4CC
:1005100085C038F4803A09F466C0883A09F47EC090
:10052000B3C0803C09F4A6C0883C09F4A3C0883B52
:1005300009F489C0A9C08091210210C09091FA01EC
:100540008091F901981770F5E091FA0181E08E0F22
:100550008093FA01F0E0E550FE4F80818093BB006C
:1005600085EC85C08093B5018DC0E091FA0181E0F2
:100570008E0F8093FA018091BB00F0E0E550FE4FB2
:1005800080839091FA018091F9016DC0E091FA01A8
:1005900081E08E0F8093FA018091BB00F0E0E5507E
:1005A000FE4F80838091200281116CC081E0809396
:1005B0001F0284EA60C083E0809322021092B60199
:1005C000CFCF8091B601803208F050C0E091B601E3
:1005D00081E08E0F8093B6018091BB00F0E0E9547A
:1005E000FE4F8083BDCF8091B601803230F4E09120
:1005F000B601F0E0E954FE4F10820E9418026091AB
:10060000B60170E0E0911B02F0911C0287EB91E0D3
:1006100009951092B6010E94220236C084E08093B0
:1006200022021092D8011092D701E0911D02F091A0
:100630001E0209958091D701811105C081E0809348
:10064000D7011092D901E091D80181E08E0F8093FB
:10065000D801F0E0E752FE4F80818093BB0090917B
:10066000D8018091D701981708F47ACF85E8809354
:10067000BC000AC085EC8093BC001092220204C02A
:100680001092B5010E941802FF91EF91BF91AF91B6
:100690009F918F917F916F915F914F913F912F919A
:1006A0000F900FBE0F901F9018958091530290E00D
:1006B00020915402821B9109089520915402809147
:1006C0005302281750F4E22FF0E0EB5AFD4F8081DF
:1006D00090E02F5F2093540208958FEF9FEF0895CD
:1006E000E091540280915302E81730F4F0E0EB5AA5
:1006F000FD4F808190E008958FEF9FEF089508955A
:10070000CF92DF92EF92FF920F931F93CF93DF93DD
:100710007C01CB018A0120912F02222389F0EB0179
:100720006B01C40ED51ECC15DD0569F06991D701AA
:10073000ED91FC910190F081E02DC7010995F3CF77
:10074000642F0E94FF01C801DF91CF911F910F918B
:10075000FF90EF90DF90CF900895CF93DF931F929B
:10076000CDB7DEB7698320912F022223D1F02091EB
:100770003002203240F021E030E0FC01338322835C
:1007800080E090E015C080913102E82FF0E0EE5C4F
:10079000FD4F998190838F5F809331028093300267
:1007A00005C061E0CE0101960E94FF0181E090E06A
:1007B0000F90DF91CF910895FC011382128248EED1
:1007C00053E060E070E044835583668377838EE472
:1007D00091E0918380830895109254021092530205
:1007E00010923102109230020C948E0181E08093BD
:1007F0002F0260935202109231021092300208953B
:100800000F93062F21E04091300262E372E0809165
:1008100052020E94AC0110923102109230021092EA
:100820002F020F91089561E00C94000483E292E09E
:100830000C94DC03CF93CFB7F894809175028111AB
:1008400027C0ECEAF0E08491E8E9F0E09491E82F29
:10085000F0E0EE0FFF1FE054FF4FA591B4918C9193
:10086000892321F461E08AE00E94340D61E08AE08E
:100870000E94FB0C8CB580618CBD8CB580648CBDF6
:1008800061E08DE00E94FB0C61E08BE00E94FB0CBC
:10089000809175028F5F80937502CFBFCF910895CD
:1008A0008EBD00000DB407FEFDCF8EB508952CB5AA
:1008B0002F7D2CBD2CB5237F2CBD2CB52C7F2CBDC2
:1008C0002DB521602DBDFC0181810E94340D85E094
:1008D00090E00C948C0CFC018081918189130C9424
:1008E000340D089560E00C94570461E00C945704B3
:1008F000EF92FF921F93CF93DF931F92CDB7DEB796
:100900007C0169830E9472046981862F8F710E9425
:1009100050048FEF0E945004182FC7010E947504E5
:10092000812F0F90DF91CF911F91FF90EF9008954D
:10093000CF92DF92EF92FF920F931F93CF93DF93AB
:1009400000D01F92CDB7DEB78C01F22E4A835B83B5
:1009500069830E9472046981862F8F7180620E9470
:100960005004E82E4A81C42E5B81D52EF40EFC146F
:1009700031F0F60181916F010E945004F8CFC80157
:100980000E9475048E2D0F900F900F90DF91CF91E4
:100990001F910F91FF90EF90DF90CF900895EF920D
:1009A000FF921F93CF93DF9300D0CDB7DEB77C01CA
:1009B0004A8369830E9472046981862F8F718062E5
:1009C0000E945004182F4A81842F0E945004C701AE
:1009D0000E947504812F0F900F90DF91CF911F918E
:1009E000FF90EF900895AF92BF92DF92EF92FF9247
:1009F0000F931F93CF93DF9300D0CDB7DEB78C0159
:100A0000FC01E580F42EE41608F4FE2CF801868142
:100A1000811102C0EF1801C0E12CC80169837A83FB
:100A20000E94720481E60E945004D82E6981A62E8D
:100A30007A81B72EF60EFA1439F08FEF0E94500427
:100A4000F50181935F01F7CFEE2029F08FEF0E942F
:100A50005004EA94F9CFC8010E9475048D2D0F90BF
:100A60000F90DF91CF911F910F91FF90EF90DF904A
:100A7000BF90AF900895EF92FF921F93CF93DF93B3
:100A80001F92CDB7DEB77C0169830E947204698131
:100A9000862F0E945004182FC7010E947504812FD1
:100AA0000F90DF91CF911F91FF90EF90089562EE2C
:100AB0000C943B0561EE0C943B056FEF0C943B05E9
:100AC000FC0160834183148280E28583168285E085
:100AD000848717820895462F6E3708F04DE765E04A
:100AE0000C94CF04CF93DF93EC0160E00E94780474
:100AF00081FD12C060E0CE010E947804482F426060
:100B000060E0CE010E94CF0465E070E080E090E0FC
:100B1000DF91CF910C94640CDF91CF9108950F93E6
:100B20001F93CF93DF938C01EB0167E10E94780460
:100B300080FD0BC0209759F0C8010E945D0590E030
:100B4000959587958770888302C080E001C081E019
:100B5000DF91CF911F910F91089560E070E00C94A8
:100B60008F05CF93DF93EC010E94F30440E767E029
:100B7000CE01DF91CF910C94CF04FF920F931F937E
:100B8000CF93DF93EC01F62E8A01611107C04C85EB
:100B900050E0B80107960E94980D07C086E08617BE
:100BA00008F437C081E0681307C0EF2DF0E0E25988
:100BB000FF4F64912C8506C0E62FF0E0E259FF4F0D
:100BC000649121E0A801CE010E9498040F2D10E04D
:100BD000F801E859FF4F64914D81CE010E94CF0486
:100BE00062E0CE010E947804F801EC58FF4F0491B6
:100BF00021E030E001C0220F0A95EAF7822B482F4E
:100C000062E0CE01DF91CF911F910F91FF900C9484
:100C1000CF04DF91CF911F910F91FF9008951F9303
:100C2000CF93DF93EC01162F62E00E947804E12F4E
:100C3000F0E0EC58FF4FE49141E050E001C0440F78
:100C4000EA95EAF74095482362E0CE01DF91CF9123
:100C50001F910C94CF04CF93DF93EC010E94720597
:100C600060E0CE010E947804482F416060E0CE0130
:100C70000E94CF0440E767E0CE010E94CF0461E00C
:100C8000CE010E946B048F81882349F02C85AE0130
:100C9000495F5F4F6AE0CE010E94980404C060E0A3
:100CA000CE010E940F066DE1CE010E94780481FF03
:100CB00005C0CE01DF91CF910C945A05DF91CF9101
:100CC0000895CF93DF93EC010E94720480E50E94A7
:100CD000500483E70E945004CE01DF91CF910C9421
:100CE00075041F93CF93DF93EC01162F66E00E94EB
:100CF0007804887F143020F4612F660F6F5F01C085
:100D000067E0462F482B66E0CE01DF91CF911F911F
:100D10000C94CF04EF92FF920F931F93CF93DF9326
:100D20001F92CDB7DEB77C018B0166E00E9478048C
:100D3000582F577D0230110531F450620BE910E055
:100D400020E030E00DC00130110529F005E510E08C
:100D500020E030E005C0586001E410E020E030E021
:100D6000F701058716872787308B452F66E0C70177
:100D700059830E94CF0466E0C7010E94780491E085
:100D80005981851390E0892F0F90DF91CF911F91AA
:100D90000F91FF90EF900895CF93DF93EC0188813E
:100DA0009981891719F061E00E94FB0C8981988173
:100DB000981719F061E00E94FB0C0E941A0460E091
:100DC000CE010E946B0461E0CE010E94570465E0F1
:100DD00070E080E090E00E94640C4CE060E0CE01A6
:100DE0000E94CF044FE564E0CE010E94CF0462E090
:100DF00070E0CE010E948A06882311F081E08C8386
:100E000060E070E0CE010E948A06CE010E94610679
:100E100040E06DE1CE010E94CF0440E06CE1CE01E4
:100E20000E94CF0440E767E0CE010E94CF046CE44B
:100E3000CE010E946B05CE010E945705CE010E9493
:100E40005A05CE010E94720560E0CE010E9478042E
:100E5000482F4E7F60E0CE010E94CF0480E0DF91FA
:100E6000CF910895FC0112828FEF8183108213824B
:100E70000895FC018381882331F0611103C08FEF55
:100E8000818308951182089583E292E00E94F6031F
:100E900083E292E00E94130491E0811190E0892F97
:100EA0000895CF93DF93EC016A8383E292E00E947E
:100EB000EC036A81CE010E9444078B83882329F0CA
:100EC00083E292E00E945D0388838B8190E0DF9152
:100ED000CF910895CF93DF93EC018B818823A9F004
:100EE00089818095862388836A8183E292E00E94CB
:100EF000F603688183E292E00E94AD0383E292E010
:100F00000E941304282F30E002C020E030E081E08E
:100F100090E0232B11F080E090E0DF91CF910895D5
:100F200008950895DC01ED91FC910284F385E02D94
:100F300041E0099581E090E00895FC01138212825E
:100F40002EE531E0318320830895DC01ED91FC91A1
:100F50000084F185E02D6FEF0994DC01ED91FC91A7
:100F60000084F185E02D60E00994DC01ED91FC91B5
:100F70000284F385E02D40E0099461E00E94B5070A
:100F800080ED97E00C948C0CCF93DF93CDB7DEB758
:100F900028970FB6F894DEBF0FBECDBF1D8220E4A8
:100FA0002E8334E13F8334E5388719822A8320E198
:100FB0002B8320E52C83FC012781421710F04FEF93
:100FC000420FFC01308550E0FE01E40FF51F303187
:100FD00021F4243011F4218101C02581260F2068DD
:100FE000622F28960FB6F894DEBF0FBECDBFDF91FB
:100FF000CF910C94B507FC016581262F24602583D1
:101000006C600C94B507CF93DF93EC01423018F07D
:101010008C8188608C834F836887222329F041303C
:1010200019F48C8184608C8364E670E080E090E049
:101030000E94640C6C8164FD31C0E881F9810284F6
:10104000F385E02D42E063E0CE01099584E991E16A
:101050000E948C0CE881F9810284F385E02D42E046
:1010600063E0CE01099586E990E00E948C0CE8814E
:10107000F9810284F385E02D42E063E0CE01099519
:1010800086E990E00E948C0CE881F9810284F38566
:10109000E02D42E062E0CE01099516C06062CE010B
:1010A0000E94B50784E991E10E948C0C6C8160621A
:1010B000CE010E94B50786E990E00E948C0C6C81FD
:1010C0006062CE010E94B50786E990E00E948C0C18
:1010D0006C816062CE010E94B5078CE390E00E94B3
:1010E0008C0C84E08D83CE010E94FB07CE010E9410
:1010F000BD0782E08E8366E0CE010E94B507CE0177
:10110000DF91CF910C94A50721E001C0220F6A95D1
:10111000EAF7DC011C962C931C971A965C934E936D
:101120001997ED91FC910084F185E02D60E0099420
:10113000FC012485222399F081859285009719F47A
:10114000611105C006C0019721F4611102C0258715
:1011500001C015866585CF010E960C946A07089527
:101160000F931F93CF93DF93EC018C01025F1F4F0E
:101170006B85C8010E945107019761F461E0C801C5
:101180000E9439071C8260E0C8010E946A0781E062
:1011900090E002C080E090E0DF91CF911F910F912D
:1011A00008958F92AF92CF92EF920F93CF93DF93E8
:1011B000CDB7DEB7FC0163871486158612861186CB
:1011C00081E0982F01C0990F4A95EAF7928B982FEA
:1011D00001C0990F2A95EAF7938B982F01C0990FB8
:1011E0000A95EAF7948B982F01C0990FEA94EAF7D1
:1011F000958B982F01C0990FCA94EAF7968B982F78
:1012000001C0990FAA94EAF7978B01C0880F8A94BE
:10121000EAF7808FDF91CF910F91EF90CF90AF9051
:101220008F9008954F925F926F927F928F92AF92BC
:10123000CF92EF920F931F93CF93DF9300D01F9223
:10124000CDB7DEB73C011A894B885C882B834A8373
:1012500069830E949D078EE691E0F301918380836C
:10126000C3010E960E9432072B814A816981C30116
:101270000E94D108A201612FC3010F900F900F901F
:10128000DF91CF911F910F91EF90CF90AF908F9002
:101290007F906F905F904F900C948408FF920F9313
:1012A0001F93CF93DF93EC01F62E8C01025F1F4F4B
:1012B0006A896F29C8010E946A076A8960956F214F
:1012C000C801DF91CF911F910F91FF900C946A0795
:1012D00020E030E050E060FF05C0FC01E20FF31FAA
:1012E0007589572B66952F5F3F4F2430310599F74D
:1012F000413011F4FC014489FC016585652B642BA8
:101300000C944E090F931F93CF93DF93EC01142F8E
:10131000062F0F70423011F440E00AC070E084E004
:10132000759567958A95E1F7CE010E946809412F6E
:10133000602FCE01DF91CF911F910F910C9468091E
:101340000F931F93CF93DF9300D01F92CDB7DEB7DB
:101350008C012B834A8369830E94B0082B814A81C8
:101360006981C8010F900F900F90DF91CF911F916D
:101370000F910C940308FC01818D228D90E0805C1C
:101380009F4F821B91098F7399270895FC01918DBE
:10139000828D981731F0828DE80FF11D858D90E0D8
:1013A00008958FEF9FEF0895FC01918D828D98171E
:1013B00061F0828DDF01A80FB11D5D968C91928D39
:1013C0009F5F9F73928F90E008958FEF9FEF089536
:1013D00088E59BE0892B49F080E090E0892B29F09B
:1013E0000E94580B81110C9400000895FC01848D1B
:1013F000DF01A80FB11DA35ABF4F2C91848D90E03F
:1014000001968F739927848FA689B7892C93A08919
:10141000B1898C9180648C93938D848D981306C0D0
:101420000288F389E02D80818F7D80830895CF939A
:10143000DF93EC01888D8823C9F0EA89FB898081DC
:1014400085FD05C0A889B9898C9186FD0FC00FB6AE
:1014500007FCF5CF808185FFF2CFA889B9898C91EF
:1014600085FFEDCFCE010E94F609E7CFDF91CF9146
:101470000895CF92DF92FF920F931F93CF93DF9344
:101480001F92CDB7DEB76C0181E0D60158968C93E0
:1014900058975B969C915B975C968C915C979813A0
:1014A00007C05096ED91FC915197808185FD2EC02B
:1014B000F601038D10E00F5F1F4F0F731127F02E01
:1014C000F601848DF81211C00FB607FCF9CFD601D2
:1014D0005096ED91FC915197808185FFF1CFC60127
:1014E00069830E94F6096981EBCF838DE80FF11DB6
:1014F000E35AFF4F6083D6015B960C935B9752963D
:10150000ED91FC915397808180620CC0D601569674
:10151000ED91FC91579760835096ED91FC91519716
:1015200080818064808381E090E00F90DF91CF9193
:101530001F910F91FF90DF90CF900895BF92CF92AF
:10154000DF92EF92FF92CF93DF93EC016A017B0170
:10155000B22EE889F98982E08083411581EE58072F
:1015600061057105A1F060E079E08DE390E0A701ED
:1015700096010E946B0D2150310941095109569580
:10158000479537952795211580E1380798F0E88928
:10159000F989108260E874E88EE190E0A701960175
:1015A0000E946B0D2150310941095109569547950B
:1015B00037952795EC85FD853083EE85FF85208363
:1015C000188EEC89FD89B082EA89FB89808180616F
:1015D0008083EA89FB89808188608083EA89FB892E
:1015E000808180688083EA89FB8980818F7D808308
:1015F000DF91CF91FF90EF90DF90CF90BF90089553
:101600001F920F920FB60F9211242F938F939F93D7
:10161000EF93FF93E0918602F09187028081E09141
:101620008C02F0918D0282FD12C0908180918F0218
:101630008F5F8F7320919002821751F0E0918F029B
:10164000F0E0EA58FD4F958F80938F0201C08081B2
:10165000FF91EF919F918F912F910F900FBE0F905F
:101660001F9018951F920F920FB60F9211242F936F
:101670003F934F935F936F937F938F939F93AF931A
:10168000BF93EF93FF9386E792E00E94F609FF91E4
:10169000EF91BF91AF919F918F917F916F915F91EA
:1016A0004F913F912F910F900FBE0F901F90189563
:1016B00086E792E00E94BB0921E0892B09F420E033
:1016C000822F0895109279021092780288EE93E0AA
:1016D000A0E0B0E080937A0290937B02A0937C021A
:1016E000B0937D028EE791E090937702809376022B
:1016F00085EC90E0909383028093820284EC90E0EA
:10170000909385028093840280EC90E0909387020E
:101710008093860281EC90E0909389028093880206
:1017200082EC90E090938B0280938A0286EC90E0AA
:1017300090938D0280938C0210928F0210929002EF
:1017400010929102109292020895CF92DF92EF923E
:10175000FF920F931F93CF93DF936C017A01EB01FC
:10176000E60EF71E00E010E0CE15DF0561F069918E
:10177000D601ED91FC910190F081E02DC601099513
:10178000080F191FF1CFC801DF91CF911F910F9161
:10179000FF90EF90DF90CF9008956115710581F073
:1017A000DB010D900020E9F7AD0141505109461BC6
:1017B000570BDC01ED91FC910280F381E02D09943F
:1017C00080E090E008950C94CD0B0E94930D089555
:1017D0000E94970C0E94E70B0E94B900C8EED9E066
:1017E0000E9442012097E1F30E94E809F9CF1F927D
:1017F0000F920FB60F9211242F933F938F939F93C5
:10180000AF93BF938091140390911503A091160399
:10181000B09117033091130323E0230F2D3720F4E9
:101820000196A11DB11D05C026E8230F0296A11D3A
:10183000B11D209313038093140390931503A09379
:101840001603B09317038091180390911903A09188
:101850001A03B0911B030196A11DB11D80931803BB
:1018600090931903A0931A03B0931B03BF91AF91F8
:101870009F918F913F912F910F900FBE0F901F90CE
:1018800018953FB7F8948091180390911903A0918F
:101890001A03B0911B0326B5A89B05C02F3F19F072
:1018A0000196A11DB11D3FBF6627782F892F9A2F62
:1018B000620F711D811D911D42E0660F771F881F09
:1018C000991F4A95D1F70895CF92DF92EF92FF9238
:1018D000CF93DF936B017C010E94410CEB01C1149B
:1018E000D104E104F10489F00E946A0D0E94410CC8
:1018F0006C1B7D0B683E734090F381E0C81AD108E1
:10190000E108F108C851DC4FEACFDF91CF91FF9099
:10191000EF90DF90CF9008958230910538F0880FD6
:10192000991F880F991F05970197F1F708957894EB
:1019300084B5826084BD84B5816084BD85B58260D4
:1019400085BD85B5816085BDEEE6F0E08081816072
:101950008083E1E8F0E01082808182608083808172
:1019600081608083E0E8F0E0808181608083E1EB4A
:10197000F0E0808184608083E0EBF0E08081816032
:101980008083EAE7F0E080818460808380818260E8
:1019900080838081816080838081806880831092D1
:1019A000C1000895833081F028F4813099F08230AD
:1019B000A1F008958730A9F08830B9F08430D1F4CF
:1019C000809180008F7D03C0809180008F7780930D
:1019D0008000089584B58F7702C084B58F7D84BD63
:1019E00008958091B0008F7703C08091B0008F7D03
:1019F0008093B0000895CF93DF9390E0FC01E2570D
:101A0000FF4F2491FC01EE55FF4F8491882349F14B
:101A100090E0880F991FFC01E054FF4FA591B4910D
:101A20008A549F4FFC01C591D4919FB7611108C0A2
:101A3000F8948C91209582238C93888182230AC00C
:101A4000623051F4F8948C91322F309583238C932B
:101A50008881822B888304C0F8948C91822B8C938C
:101A60009FBFDF91CF9108950F931F93CF93DF9383
:101A70001F92CDB7DEB7282F30E0F901E658FF4FAF
:101A80008491F901E257FF4F1491F901EE55FF4F90
:101A900004910023C9F0882321F069830E94D20CAD
:101AA0006981E02FF0E0EE0FFF1FEA54FF4FA59190
:101AB000B4919FB7F8948C91611103C01095812364
:101AC00001C0812B8C939FBF0F90DF91CF911F910D
:101AD0000F9108950895A1E21A2EAA1BBB1BFD01C8
:101AE0000DC0AA1FBB1FEE1FFF1FA217B307E407FD
:101AF000F50720F0A21BB30BE40BF50B661F771F55
:101B0000881F991F1A9469F7609570958095909534
:101B10009B01AC01BD01CF010895EE0FFF1F0590A1
:101B2000F491E02D099481E090E0F8940C94A10DDB
:101B3000FB01DC0102C001900D9241505040D8F7EA
:061B40000895F894FFCFA8
:101B4600314E6F646500324E6F64650048656C6C9B
:101B56006F2C20776F726C642100484921596F758C
:101B6600724475696E6F2E636F6D005573652053F1
:101B7600657269616C204D6F6E00547970652074D2
:101B86006F20646973706C61790000000000AD031A
:101B9600800355035D0370037F0300000000920776
:101BA600A50B030890079107E50B000000009207BC
:101BB600A50BA00984089808820900000000390ACC
:0A1BC600A50BBB09D409C609170AD4
:00000001FF
