:100000000C9476000C949E000C949E000C949E0020
:100010000C949E000C949E000C949E000C949E00E8
:100020000C949E000C949E000C949E000C949E00D8
:100030000C949E000C949E000C949E000C949E00C8
:100040000C94AB0C0C949E000C94210B0C94530B51
:100050000C949E000C949E000C949E000C949E00A8
:100060000C941A020C949E0077726974655F726535
:1000700067697374657228253032782C25303278A0
:10008000290D0A001112131415160A0B0C0D0E0F70
:100090000001020304050000000800020100000343
:1000A0000407000000000000000001020408102006
:1000B00040800102040810200102040810200404FA
:1000C0000404040404040202020202020303030300
:1000D000030300000000250028002B0000000000A2
:1000E000240027002A00DB000804830B11241FBE14
:1000F000CFEFD8E0DEBFCDBF12E0A0E0B1E0E8E78F
:10010000F2E202C005900D92AC30B107D9F723E0BE
:10011000ACE0B2E001C01D92A43AB207E1F710E0F2
:10012000CCEED0E004C02297FE010E94430EC63EF2
:10013000D107C9F70E949C0C0C943A110C94000052
:10014000CF93DF93CDB7DEB7A1970FB6F894DEBF9C
:100150000FBECDBFBE016F5D7F4F8CE092E00E946D
:10016000A2058823F9F040E2BE016F5F7F4F8CE06B
:1001700092E00E94C00589A18130A1F46CE071E099
:1001800088EF92E00E940A0C4AE050E069A188EFF3
:1001900092E00E94820CBE016F5F7F4F88EF92E079
:1001A0000E940A0CA1960FB6F894DEBF0FBECDBF19
:1001B000DF91CF9108958F92AF92CF92EF920F93EC
:1001C0001F921F9283E08F9387E0882E96E0A92EDE
:1001D00025E0C22E34E0E32E00E021E042E06FE3B0
:1001E0008EE192E00E9433090F900F900F9048E04B
:1001F00067E08CE092E00F91EF90CF90AF908F90FE
:100200000C94730560ED77E080E090E00E94180D9B
:1002100026E040E052EC61E070E088EF92E00E945E
:10022000BF0A6EE171E088EF92E00E940A0C8CE058
:1002300092E00E94F50664E68CE092E00E947E0562
:100240006DE271E088EF92E00E940A0C60E08CE0C1
:1002500092E00E949A0666E071E08CE092E00E94D3
:10026000CC0561E471E088EF92E00E940A0C40E066
:1002700051E061E08CE092E00E94E6056CE571E0FF
:1002800088EF92E00E940A0C8CE092E00E945406F3
:1002900026E040E052EC61E070E088EF92E00E94DE
:1002A000BF0A20E042E060E18EE192E00E94C109D5
:1002B0008EE192E00E94CE0740E060E08EE192E0A5
:1002C0000E94E5076FE671E08EE192E00E94040C67
:1002D00068EE73E080E090E00E94180D41E060E07D
:1002E0008EE192E00E94E5076FE671E08EE192E018
:1002F0000E94040C60ED77E080E090E00C94180D13
:100300001092A40281E08093A2021092A10261E007
:1003100082E10E94E80D61E083E10E94E80DE9EBD3
:10032000F0E080818E7F808380818D7F808388E470
:100330008093B80085E48093BC0008950F93413208
:1003400008F046C09091A4029111FCCF92E09093E6
:10035000A4020093A2029FEF9093370210927C02B6
:1003600040937B02FB016DE772E0DB019A2F961B45
:10037000941718F491919D93F9CF1092A302909144
:10038000A302880F892B8093A3028091A102813060
:1003900041F41092A1028091A3028093BB0085ECEE
:1003A00001C085EE8093BC00222321F08091A4023D
:1003B0008230E1F3809137028F3F61F08091370204
:1003C000803251F080913702803341F483E007C0DE
:1003D00081E005C080E003C082E001C084E00F91AD
:1003E0000895613298F42091A402243089F4609336
:1003F0005902FC018BE592E0DC012A2F281B26170D
:1004000018F421912D93F9CF80E0089581E00895AB
:1004100082E0089585ED8093BC008091BC0084FD4E
:10042000FCCF1092A402089585EC8093BC0010923A
:10043000A40208951F920F920FB60F9211242F93CA
:100440003F934F935F936F937F938F939F93AF935C
:10045000BF93EF93FF938091B900887F803609F4B2
:100460009CC068F5883209F45BC090F4803109F4CF
:1004700054C038F4882309F4F5C0883009F44DC01D
:10048000F5C0883109F44CC0803209F45DC0EEC07B
:10049000803409F468C048F4803309F455C08833C7
:1004A00009F0E4C080933702A8C0803509F44FC03A
:1004B000883509F45DC0883409F0D8C0D5C08839C2
:1004C00009F4C6C0A8F4883709F467C038F4883640
:1004D00009F463C0803709F460C0C8C0883809F4E3
:1004E000B7C0803909F45FC0803809F0BFC05BC075
:1004F000803B09F485C038F4803A09F466C0883A34
:1005000009F47EC0B3C0803C09F4A6C0883C09F45D
:10051000A3C0883B09F489C0A9C08091A30210C080
:1005200090917C0280917B02981770F5E0917C029B
:1005300081E08E0F80937C02F0E0E358FD4F8081D4
:100540008093BB0085EC85C0809337028DC0E0911D
:100550007C0281E08E0F80937C028091BB00F0E0F2
:10056000E358FD4F808390917C0280917B026DC0A7
:10057000E0917C0281E08E0F80937C028091BB0031
:10058000F0E0E358FD4F80838091A20281116CC09E
:1005900081E08093A10284EA60C083E08093A4029A
:1005A00010923802CFCF80913802803208F050C0CC
:1005B000E091380281E08E0F809338028091BB0079
:1005C000F0E0E75CFD4F8083BDCF80913802803240
:1005D00030F4E0913802F0E0E75CFD4F10820E94B9
:1005E0000A026091380270E0E0919D02F0919E0253
:1005F00089E392E00995109238020E94140236C0F5
:1006000084E08093A40210925A0210925902E09161
:100610009F02F091A002099580915902811105C0B5
:1006200081E08093590210925B02E0915A0281E0CE
:100630008E0F80935A02F0E0E55AFD4F808180933F
:10064000BB0090915A0280915902981708F47ACF12
:1006500085E88093BC000AC085EC8093BC001092B2
:10066000A40204C0109237020E940A02FF91EF9187
:10067000BF91AF919F918F917F916F915F914F91BA
:100680003F912F910F900FBE0F901F901895809162
:10069000D50290E02091D602821B91090895209105
:1006A000D6028091D502281750F4E22FF0E0E952EB
:1006B000FD4F808190E02F5F2093D60208958FEF49
:1006C0009FEF0895E091D6028091D502E81730F4AB
:1006D000F0E0E952FD4F808190E008958FEF9FEFA9
:1006E00008950895CF92DF92EF92FF920F931F9398
:1006F000CF93DF937C01CB018A012091B1022223A9
:1007000089F0EB016B01C40ED51ECC15DD0569F037
:100710006991D701ED91FC910190F081E02DC70125
:100720000995F3CF642F0E94F101C801DF91CF91A9
:100730001F910F91FF90EF90DF90CF900895CF938E
:10074000DF931F92CDB7DEB769832091B1022223D8
:10075000D1F02091B202203240F021E030E0FC01E3
:100760003383228380E090E015C08091B302E82FAC
:10077000F0E0EC54FD4F998190838F5F8093B3023A
:100780008093B20205C061E0CE0101960E94F101A2
:1007900081E090E00F90DF91CF910895FC011382EA
:1007A000128248EE53E060E070E044835583668334
:1007B000778388E791E09183808308951092D60231
:1007C0001092D5021092B3021092B2020C948001E2
:1007D00081E08093B1026093D4021092B302109230
:1007E000B20208950F93062F21E04091B20264EB0C
:1007F00072E08091D4020E949E011092B302109286
:10080000B2021092B1020F91089561E00C94F203CC
:1008100085EA92E00C94CE03CF93CFB7F894809101
:10082000F702811127C0E8ECF0E08491E4EBF0E0FE
:100830009491E82FF0E0EE0FFF1FE452FF4FA591D7
:10084000B4918C91892321F461E08AE00E94E80D43
:1008500061E08AE00E94AF0D8CB580618CBD8CB5E3
:1008600080648CBD61E08DE00E94AF0D61E08BE0A3
:100870000E94AF0D8091F7028F5F8093F702CFBF88
:10088000CF9108958EBD00000DB407FEFDCF8EB54B
:1008900008952CB52F7D2CBD2CB5237F2CBD2CB5F8
:1008A0002C7F2CBD2DB521602DBDFC0181810E94C6
:1008B000E80D85E090E00C94400DFC018081918171
:1008C00089130C94E80D089560E00C94490461E0EC
:1008D0000C944904EF92FF921F93CF93DF931F92E2
:1008E000CDB7DEB77C0169830E9464046981862FDD
:1008F0008F710E9442048FEF0E944204182FC7019B
:100900000E946704812F0F90DF91CF911F91FF907C
:10091000EF900895CF92DF92EF92FF920F931F9383
:10092000CF93DF9300D01F92CDB7DEB78C01F22EAC
:100930004A835B8369830E9464046981862F8F7177
:1009400080620E944204E82E4A81C42E5B81D52E2B
:10095000F40EFC1431F0F60181916F010E94420403
:10096000F8CFC8010E9467048E2D0F900F900F9052
:10097000DF91CF911F910F91FF90EF90DF90CF907B
:100980000895EF92FF921F93CF93DF9300D0CDB7DE
:10099000DEB77C011F924F931F926F9328E630E0E1
:1009A0003F932F934A8369830E94690EC7010E9477
:1009B00064046981862F8F7180620E944204182F1F
:1009C0004A81842F0E944204C7010E9467040F904D
:1009D0000F900F900F900F900F90812F0F900F900E
:1009E000DF91CF911F91FF90EF900895AF92BF924A
:1009F000DF92EF92FF920F931F93CF93DF9300D07C
:100A0000CDB7DEB78C01FC01E580F42EE41608F4C6
:100A1000FE2CF8018681811102C0EF1801C0E12C83
:100A20001F92EF921F92FF9282EA91E09F938F9321
:100A300069837A830E94550EC8010E94640481E68E
:100A40000E944204D82E0F900F900F900F900F909D
:100A50000F906981A62E7A81B72EF60EFA1439F01E
:100A60008FEF0E944204F50181935F01F7CFEE20E2
:100A700029F08FEF0E944204EA94F9CFC8010E9446
:100A800067048D2D0F900F90DF91CF911F910F91E3
:100A9000FF90EF90DF90BF90AF900895EF92FF929C
:100AA0001F93CF93DF931F92CDB7DEB77C0169838D
:100AB0000E9464046981862F0E944204182FC70196
:100AC0000E946704812F0F90DF91CF911F91FF90BB
:100AD000EF90089562EE0C944E0561EE0C944E0575
:100AE0006FEF0C944E05FC0160834183148280E219
:100AF0008583168285E0848717820895462F6E3796
:100B000008F04DE765E00C94C104CF93DF93EC014E
:100B100060E00E946A0481FD12C060E0CE010E9484
:100B20006A04482F426060E0CE010E94C10465E083
:100B300070E080E090E0DF91CF910C94180DDF9190
:100B4000CF9108950F931F93CF93DF938C01EB0107
:100B500067E10E946A0480FD0BC0209759F0C8012C
:100B60000E94700590E0959587958770888302C0F4
:100B700080E001C081E0DF91CF911F910F91089536
:100B8000CF93DF93EC010E94F60440E767E0CE01CB
:100B9000DF91CF910C94C1040F931F93CF93DF93F8
:100BA000EC018B012C85AB016AE00E948A042C8544
:100BB000A80160E1CE010E948A044D8161E1CE016D
:100BC000DF91CF911F910F910C94C104FF920F936D
:100BD0001F93CF93DF93EC01F62E8A01611107C0BA
:100BE0004C8550E0B80107960E944C0E07C086E085
:100BF000861708F437C081E0681307C0EF2DF0E0D6
:100C0000E657FF4F64912C8506C0E62FF0E0E657CB
:100C1000FF4F649121E0A801CE010E948A040F2DAC
:100C200010E0F801EC57FF4F64914D81CE010E9416
:100C3000C10462E0CE010E946A04F801E057FF4F50
:100C4000049121E030E001C0220F0A95EAF7822BDF
:100C5000482F62E0CE01DF91CF911F910F91FF905D
:100C60000C94C104DF91CF911F910F91FF900895D3
:100C70001F93CF93DF93EC01162F62E00E946A046A
:100C8000E12FF0E0E057FF4FE49141E050E001C078
:100C9000440FEA95EAF74095482362E0CE01DF91E0
:100CA000CF911F910C94C104CF93DF93EC010E946C
:100CB000850560E0CE010E946A04482F416060E033
:100CC000CE010E94C10440E767E0CE010E94C1044A
:100CD00061E0CE010E945D048F81882349F02C855C
:100CE000AE01495F5F4F6AE0CE010E948A0404C0F2
:100CF00060E0CE010E9438066DE1CE010E946A04D8
:100D000081FF05C0CE01DF91CF910C946D05DF917D
:100D1000CF910895CF93DF93EC010E94640480E5A6
:100D20000E94420483E70E944204CE01DF91CF91EA
:100D30000C9467041F93CF93DF93EC01162F66E0AA
:100D40000E946A04887F143020F4612F660F6F5F61
:100D500001C067E0462F482B66E0CE01DF91CF91BE
:100D60001F910C94C104EF92FF920F931F93CF93A6
:100D7000DF931F92CDB7DEB77C018B0166E00E9446
:100D80006A04582F577D0230110531F450620BE987
:100D900010E020E030E00DC00130110529F005E53C
:100DA00010E020E030E005C0586001E410E020E0F1
:100DB00030E0F701058716872787308B452F66E0DF
:100DC000C70159830E94C10466E0C7010E946A04FA
:100DD00091E05981851390E0892F0F90DF91CF9199
:100DE0001F910F91FF90EF900895CF93DF93EC0147
:100DF00088819981891719F061E00E94AF0D89817E
:100E00009881981719F061E00E94AF0D0E940C04C0
:100E100060E0CE010E945D0461E0CE010E944904C1
:100E200065E070E080E090E00E94180D4CE060E02A
:100E3000CE010E94C1044FE564E0CE010E94C104CE
:100E400062E070E0CE010E94B306882311F081E0D9
:100E50008C8360E070E0CE010E94B306CE010E9458
:100E60008A0640E06DE1CE010E94C10440E06CE1E1
:100E7000CE010E94C10440E767E0CE010E94C10498
:100E80006CE4CE010E947E05CE010E946A05CE016F
:100E90000E946D05CE010E94850560E0CE010E9492
:100EA0006A04482F4E7F60E0CE010E94C10480E0BA
:100EB000DF91CF910895FC0112828FEF8183108220
:100EC00013820895FC018381882331F0611103C0EE
:100ED0008FEF818308951182089585EA92E00E9440
:100EE000E80385EA92E00E94050491E0811190E018
:100EF000892F0895CF93DF93EC016A8385EA92E00E
:100F00000E94DE036A81CE010E946D078B838823D5
:100F100029F085EA92E00E944F0388838B8190E05C
:100F2000DF91CF910895CF93DF93EC018B818823DC
:100F3000A9F089818095862388836A8185EA92E079
:100F40000E94E803688185EA92E00E949F0385EA97
:100F500092E00E940504282F30E002C020E030E03B
:100F600081E090E0232B11F080E090E0DF91CF91C1
:100F7000089508950895DC01ED91FC910284F385B4
:100F8000E02D41E0099581E090E00895FC01138295
:100F9000128221ED31E0318320830895DC01ED914F
:100FA000FC910084F185E02D6FEF0994DC01ED9157
:100FB000FC910284F385E02D40E0099461E00E94F9
:100FC000D60780ED97E00C94400DCF93DF93CDB71B
:100FD000DEB728970FB6F894DEBF0FBECDBF1D82D7
:100FE00020E42E8334E13F8334E5388719822A8355
:100FF00020E12B8320E52C83FC012781421710F090
:101000004FEF420FFC01308550E0FE01E40FF51F69
:10101000303121F4243011F4218101C02581260FC3
:101020002068622F28960FB6F894DEBF0FBECDBFA2
:10103000DF91CF910C94D607FC016581262F2460A7
:1010400025836C600C94D607CF93DF93EC0142307C
:1010500018F08C8188608C834F836887222329F065
:10106000413019F48C8184608C8364E670E080E008
:1010700090E00E94180D6C8164FD31C0E881F98117
:101080000284F385E02D42E063E0CE01099584E916
:1010900091E10E94400DE881F9810284F385E02D01
:1010A00042E063E0CE01099586E990E00E94400DA0
:1010B000E881F9810284F385E02D42E063E0CE010E
:1010C000099586E990E00E94400DE881F98102844B
:1010D000F385E02D42E062E0CE01099516C0606222
:1010E000CE010E94D60784E991E10E94400D6C81F7
:1010F0006062CE010E94D60786E990E00E94400D12
:101100006C816062CE010E94D60786E990E00E9461
:10111000400D6C816062CE010E94D6078CE390E0A6
:101120000E94400D84E08D83CE010E941C08CE01F8
:101130000E94DE0782E08E8366E0CE010E94D60721
:10114000CE01DF91CF910C94CE0721E001C0220F98
:101150006A95EAF7DC011C962C931C971A965C930F
:101160004E931997ED91FC910084F185E02D60E09C
:101170000994FC012485222399F0818592850097AA
:1011800019F4611105C006C0019721F4611102C074
:10119000258701C015866585CF010E960C949307AF
:1011A00008950F931F93CF93DF93EC018C01025F9F
:1011B0001F4F6B85C8010E947A07019761F461E0B7
:1011C000C8010E9462071C8260E0C8010E94930768
:1011D00081E090E002C080E090E0DF91CF911F912C
:1011E0000F9108958F92AF92CF92EF920F93CF937A
:1011F000DF93CDB7DEB7FC016387148615861286B0
:10120000118681E0982F01C0990F4A95EAF7928BD9
:10121000982F01C0990F2A95EAF7938B982F01C058
:10122000990F0A95EAF7948B982F01C0990FEA94C9
:10123000EAF7958B982F01C0990FCA94EAF7968B1D
:10124000982F01C0990FAA94EAF7978B01C0880FD5
:101250008A94EAF7808FDF91CF910F91EF90CF9032
:10126000AF908F9008954F925F926F927F928F927E
:10127000AF92CF92EF920F931F93CF93DF9300D053
:101280001F92CDB7DEB73C011A894B885C882B834F
:101290004A8369830E94C60781EE91E0F30191833E
:1012A0008083C3010E960E945B072B814A8169816E
:1012B000C3010E94F208A201612FC3010F900F9099
:1012C0000F90DF91CF911F910F91EF90CF90AF9042
:1012D0008F907F906F905F904F900C94A508FF9235
:1012E0000F931F93CF93DF93EC01F62E8C01025FD7
:1012F0001F4F6A896F29C8010E9493076A89609508
:101300006F21C801DF91CF911F910F91FF900C9435
:10131000930720E030E050E060FF05C0FC01E20FE1
:10132000F31F7589572B66952F5F3F4F243031058A
:1013300099F7413011F4FC014489FC016585652B66
:10134000642B0C946F090F931F93CF93DF93EC01E1
:10135000142F062F0F70423011F440E00AC070E0E5
:1013600084E0759567958A95E1F7CE010E94890919
:10137000412F602FCE01DF91CF911F910F910C94DF
:1013800089090F931F93CF93DF9300D01F92CDB79E
:10139000DEB78C012B834A8369830E94D1082B819D
:1013A0004A816981C8010F900F900F90DF91CF9112
:1013B0001F910F910C942408FC01818D228D90E0E7
:1013C000805C9F4F821B91098F7399270895FC01C0
:1013D000918D828D981731F0828DE80FF11D858DEA
:1013E00090E008958FEF9FEF0895FC01918D828D1D
:1013F000981761F0828DDF01A80FB11D5D968C9169
:10140000928D9F5F9F73928F90E008958FEF9FEF73
:10141000089589E79BE0892B49F080E090E0892BD3
:1014200029F00E94790B81110C9400000895FC01B1
:10143000848DDF01A80FB11DA35ABF4F2C91848D5D
:1014400090E001968F739927848FA689B7892C9392
:10145000A089B1898C9180648C93938D848D98132D
:1014600006C00288F389E02D80818F7D80830895F6
:10147000CF93DF93EC01888D8823C9F0EA89FB893B
:10148000808185FD05C0A889B9898C9186FD0FC032
:101490000FB607FCF5CF808185FFF2CFA889B98907
:1014A0008C9185FFEDCFCE010E94170AE7CFDF9127
:1014B000CF910895CF92DF92FF920F931F93CF9316
:1014C000DF931F92CDB7DEB76C0181E0D60158964D
:1014D0008C9358975B969C915B975C968C915C97EC
:1014E000981307C05096ED91FC915197808185FD2E
:1014F0002EC0F601038D10E00F5F1F4F0F731127F1
:10150000F02EF601848DF81211C00FB607FCF9CF4A
:10151000D6015096ED91FC915197808185FFF1CFD6
:10152000C60169830E94170A6981EBCF838DE80F9A
:10153000F11DE35AFF4F6083D6015B960C935B97D6
:101540005296ED91FC915397808180620CC0D60138
:101550005696ED91FC91579760835096ED91FC91D2
:10156000519780818064808381E090E00F90DF91CB
:10157000CF911F910F91FF90DF90CF900895BF9270
:10158000CF92DF92EF92FF92CF93DF93EC016A014B
:101590007B01B22EE889F98982E08083411581EED2
:1015A000580761057105A1F060E079E08DE390E0F6
:1015B000A70196010E941F0E2150310941095109CE
:1015C0005695479537952795211580E1380798F06E
:1015D000E889F989108260E874E88EE190E0A7015B
:1015E00096010E941F0E215031094109510956955B
:1015F000479537952795EC85FD853083EE85FF85EA
:101600002083188EEC89FD89B082EA89FB8980816C
:1016100080618083EA89FB89808188608083EA8990
:10162000FB89808180688083EA89FB8980818F7D46
:101630008083DF91CF91FF90EF90DF90CF90BF90AC
:1016400008951F920F920FB60F9211242F938F932C
:101650009F93EF93FF93E0910803F091090380813A
:10166000E0910E03F0910F0382FD12C090818091F2
:1016700011038F5F8F7320911203821751F0E09155
:101680001103F0E0E850FD4F958F8093110301C0E6
:101690008081FF91EF919F918F912F910F900FBEBD
:1016A0000F901F9018951F920F920FB60F92112452
:1016B0002F933F934F935F936F937F938F939F935A
:1016C000AF93BF93EF93FF9388EF92E00E94170AC6
:1016D000FF91EF91BF91AF919F918F917F916F910A
:1016E0005F914F913F912F910F900FBE0F901F90E0
:1016F000189588EF92E00E94DC0921E0892B09F41B
:1017000020E0822F08951092FB021092FA0288EED8
:1017100093E0A0E0B0E08093FC029093FD02A093E0
:10172000FE02B093FF0281EF91E09093F902809363
:10173000F80285EC90E0909305038093040384EC19
:1017400090E0909307038093060380EC90E09093E1
:1017500009038093080381EC90E090930B0380933E
:101760000A0382EC90E090930D0380930C0386ECC7
:1017700090E090930F0380930E0310921103109248
:10178000120310921303109214030895CF92DF9264
:10179000EF92FF920F931F93CF93DF936C017A0127
:1017A000EB01E60EF71E00E010E0CE15DF0561F05C
:1017B0006991D601ED91FC910190F081E02DC60177
:1017C0000995080F191FF1CFC801DF91CF911F9123
:1017D0000F91FF90EF90DF90CF9008956115710504
:1017E00081F0DB010D900020E9F7AD014150510976
:1017F000461B570BDC01ED91FC910280F381E02D3B
:10180000099480E090E008950C94EE0B6AEC71E08E
:101810000C94EE0B0F931F93CF93DF93EC010E9478
:10182000EE0B8C01CE010E94060C800F911FDF9100
:10183000CF911F910F9108958F929F92AF92BF9277
:10184000CF92DF92EF92FF920F931F93CF93DF938C
:10185000CDB7DEB7A1970FB6F894DEBF0FBECDBFF0
:101860007C01C42EE52FCB01D22E19A221E02D152B
:1018700010F02AE0D22E8E010F5D1F4F8D2C912C7F
:10188000A12CB12C6C2D7E2FA50194010E941F0E5E
:101890008C2DD29E80191124015011098A3014F424
:1018A000805D01C0895CF801808321153105410507
:1018B000510521F0C22EE32FCA01E4CFB801C701C0
:1018C0000E94EE0BA1960FB6F894DEBF0FBECDBFFF
:1018D000DF91CF911F910F91FF90EF90DF90CF900C
:1018E000BF90AF909F908F9008952115310541F4DE
:1018F000DC01ED91FC910190F081E02D642F0994C1
:101900000C941C0C0F931F93CF93DF93EC019A015F
:10191000462F50E060E070E00E94750C8C01CE0113
:101920000E94060C800F911FDF91CF911F910F91A4
:1019300008950E94470E08950E944B0D0E949B0C33
:101940000E940201C9E0DAE00E94A0002097E1F3C2
:101950000E94090AF9CF1F920F920FB60F9211241D
:101960002F933F938F939F93AF93BF938091960351
:1019700090919703A0919803B091990330919503AA
:1019800023E0230F2D3720F40196A11DB11D05C0C2
:1019900026E8230F0296A11DB11D20939503809385
:1019A000960390939703A0939803B0939903809123
:1019B0009A0390919B03A0919C03B0919D03019683
:1019C000A11DB11D80939A0390939B03A0939C0348
:1019D000B0939D03BF91AF919F918F913F912F91B4
:1019E0000F900FBE0F901F9018953FB7F8948091FD
:1019F0009A0390919B03A0919C03B0919D0326B5FF
:101A0000A89B05C02F3F19F00196A11DB11D3FBF36
:101A10006627782F892F9A2F620F711D811D911DC6
:101A200042E0660F771F881F991F4A95D1F70895E6
:101A3000CF92DF92EF92FF92CF93DF936B017C0105
:101A40000E94F50CEB01C114D104E104F10489F00A
:101A50000E941E0E0E94F50C6C1B7D0B683E7340AD
:101A600090F381E0C81AD108E108F108C851DC4FB1
:101A7000EACFDF91CF91FF90EF90DF90CF90089564
:101A80008230910538F0880F991F880F991F0597AC
:101A90000197F1F70895789484B5826084BD84B588
:101AA000816084BD85B5826085BD85B5816085BD59
:101AB000EEE6F0E0808181608083E1E8F0E0108272
:101AC000808182608083808181608083E0E8F0E0B3
:101AD000808181608083E1EBF0E08081846080839D
:101AE000E0EBF0E0808181608083EAE7F0E08081D4
:101AF0008460808380818260808380818160808334
:101B00008081806880831092C1000895833081F0C5
:101B100028F4813099F08230A1F008958730A9F03F
:101B20008830B9F08430D1F4809180008F7D03C07B
:101B3000809180008F7780938000089584B58F779F
:101B400002C084B58F7D84BD08958091B0008F77E9
:101B500003C08091B0008F7D8093B0000895CF9333
:101B6000DF9390E0FC01E655FF4F2491FC01E25425
:101B7000FF4F8491882349F190E0880F991FFC0161
:101B8000E452FF4FA591B4918E529F4FFC01C59135
:101B9000D4919FB7611108C0F8948C91209582234D
:101BA0008C93888182230AC0623051F4F8948C911E
:101BB000322F309583238C938881822B888304C0B5
:101BC000F8948C91822B8C939FBFDF91CF910895D5
:101BD0000F931F93CF93DF931F92CDB7DEB7282FBC
:101BE00030E0F901EA56FF4F8491F901E655FF4FC5
:101BF0001491F901E254FF4F04910023C9F08823A6
:101C000021F069830E94860D6981E02FF0E0EE0FDC
:101C1000FF1FEE52FF4FA591B4919FB7F8948C919E
:101C2000611103C01095812301C0812B8C939FBF4C
:101C30000F90DF91CF911F910F9108950895A1E228
:101C40001A2EAA1BBB1BFD010DC0AA1FBB1FEE1F36
:101C5000FF1FA217B307E407F50720F0A21BB30B81
:101C6000E40BF50B661F771F881F991F1A9469F7FD
:101C700060957095809590959B01AC01BD01CF0159
:101C80000895EE0FFF1F0590F491E02D099481E077
:101C900090E0F8940C943A11FB01DC0102C0019031
:101CA0000D9241505040D8F70895A0E0B0E0EBE528
:101CB000FEE00C941311FE01359661917191AF0114
:101CC0008091A0039091A1030E948B0EE2E00C94FE
:101CD0002F11A0E0B0E0EFE6FEE00C941111FE0140
:101CE00037966191719100EA13E0D8018D919C9132
:101CF000DC0113962C911397286013962C93AF0157
:101D00000E948B0ED801ED91FC912381277F2383C4
:101D1000E4E00C942D11ACE0B0E0E1E9FEE00C94BD
:101D200003117C016B018A01FC01178216828381F9
:101D300081FFBDC1CE0101964C01F7019381F601EF
:101D400093FD859193FF81916F01882309F4ABC1C5
:101D5000853239F493FD859193FF81916F0185322E
:101D600029F4B70190E00E947310E7CF512C312C79
:101D700020E02032A0F48B3269F030F4803259F048
:101D8000833269F420612CC08D3239F0803339F40C
:101D9000216026C02260246023C0286021C027FD66
:101DA00027C030ED380F3A3078F426FF06C0FAE04D
:101DB0005F9E300D1124532E13C08AE0389E300DE3
:101DC0001124332E20620CC08E3221F426FD6BC10B
:101DD000206406C08C3611F4206802C0883641F4B5
:101DE000F60193FD859193FF81916F018111C1CF20
:101DF000982F9F7D9554933028F40C5F1F4FFFE37D
:101E0000F9830DC0833631F0833771F0833509F0E3
:101E10005BC022C0F801808189830E5F1F4F44247C
:101E20004394512C540115C03801F2E06F0E711C1F
:101E3000F801A080B18026FF03C0652D70E002C0CC
:101E40006FEF7FEFC5012C870E9468102C01830182
:101E50002C852F77222E17C03801F2E06F0E711CEF
:101E6000F801A080B18026FF03C0652D70E002C09C
:101E70006FEF7FEFC5012C870E945D102C012C8530
:101E80002068222E830123FC1BC0832D90E048167E
:101E90005906B0F4B70180E290E00E9473103A94C2
:101EA000F4CFF50127FC859127FE81915F01B701F1
:101EB00090E00E94731031103A94F1E04F1A5108EB
:101EC0004114510471F7E5C0843611F0893639F5B3
:101ED000F80127FF07C060817181828193810C5FC7
:101EE0001F4F08C060817181882777FD8095982FEA
:101EF0000E5F1F4F2F76B22E97FF09C090958095E9
:101F0000709561957F4F8F4F9F4F2068B22E2AE0CA
:101F100030E0A4010E94A510A82EA81844C085375F
:101F200029F42F7EB22E2AE030E025C0F22FF97F6F
:101F3000BF2E8F36C1F018F4883579F0B4C08037E1
:101F400019F0883721F0AFC02F2F2061B22EB4FED8
:101F50000DC08B2D8460B82E09C024FF0AC09F2FAE
:101F60009660B92E06C028E030E005C020E130E0E0
:101F700002C020E132E0F801B7FE07C06081718144
:101F8000828193810C5F1F4F06C06081718180E068
:101F900090E00E5F1F4FA4010E94A510A82EA81864
:101FA000FB2DFF77BF2EB6FE0BC02B2D2E7FA51469
:101FB00050F4B4FE0AC0B2FC08C02B2D2E7E05C022
:101FC0007A2C2B2D03C07A2C01C0752C24FF0DC058
:101FD000FE01EA0DF11D8081803311F4297E09C0D4
:101FE00022FF06C07394739404C0822F867809F090
:101FF000739423FD13C020FF06C05A2C731418F4E9
:10200000530C5718732C731468F4B70180E290E0F6
:102010002C870E94731073942C85F5CF731410F4E1
:10202000371801C0312C24FF12C0B70180E390E0C3
:102030002C870E9473102C8522FF17C021FF03C03C
:1020400088E590E002C088E790E0B7010CC0822FDD
:10205000867859F021FD02C080E201C08BE227FDA5
:102060008DE2B70190E00E947310A51438F4B70117
:1020700080E390E00E9473105A94F7CFAA94F40181
:10208000EA0DF11D8081B70190E00E947310A1104C
:10209000F5CF332009F451CEB70180E290E00E94E1
:1020A00073103A94F6CFF7018681978102C08FEFC3
:1020B0009FEF2C96E2E10C941F11FC0105906150FA
:1020C00070400110D8F7809590958E0F9F1F08954E
:1020D000FC016150704001900110D8F780959095F7
:1020E0008E0F9F1F08950F931F93CF93DF93182F89
:1020F000092FEB018B8181FD03C08FEF9FEF20C083
:1021000082FF10C04E815F812C813D8142175307B1
:102110007CF4E881F9819F012F5F3F4F3983288349
:10212000108306C0E885F985812F0995892B29F749
:102130002E813F812F5F3F4F3F832E83812F902F32
:10214000DF91CF911F910F910895FA01AA272830AE
:1021500051F1203181F1E8946F936E7F6E5F7F4F74
:102160008F4F9F4FAF4FB1E03ED0B4E03CD0670FF0
:10217000781F891F9A1FA11D680F791F8A1F911D43
:10218000A11D6A0F711D811D911DA11D20D009F493
:1021900068943F912AE0269F11243019305D3193D5
:1021A000DEF6CF010895462F4770405D4193B3E0BE
:1021B0000FD0C9F7F6CF462F4F70405D4A3318F065
:1021C000495D31FD4052419302D0A9F7EACFB4E016
:1021D000A6959795879577956795BA95C9F70097CE
:1021E0006105710508959B01AC010A2E069457956F
:1021F000479537952795BA95C9F7620F731F841FC6
:10220000951FA01D08952F923F924F925F926F925B
:102210007F928F929F92AF92BF92CF92DF92EF9276
:10222000FF920F931F93CF93DF93CDB7DEB7CA1BF7
:10223000DB0B0FB6F894DEBF0FBECDBF09942A8822
:10224000398848885F846E847D848C849B84AA84CA
:10225000B984C884DF80EE80FD800C811B81AA8157
:10226000B981CE0FD11D0FB6F894DEBF0FBECDBF22
:08227000ED010895F894FFCF81
:10227800314E6F646500324E6F646500476F74209D
:1022880064617461206F6E20706970652100456E0D
:10229800746572696E672073657475700053657430
:1022A80074696E6720706F776572206C6576656CEF
:1022B800004F70656E696E67207265616420706991
:1022C8007065206F6E20314E6F64650053746172C3
:1022D80074696E6720746F206C697374656E00543E
:1022E800656D7000000000009F03720347034F03F1
:1022F800620371035B57726974696E6720257520E4
:10230800627974657320257520626C616E6B735DEC
:102318000A005B52656164696E67202575206279E1
:1023280074657320257520626C616E6B735D0A009D
:10233800464541545552453D25690D0A00000000A7
:1023480000BB07C60B2408B907BA07990C000000A0
:1023580000BB07C60BC109A508B908A309000000FE
:10236800005A0AC60BDC09F509E709380A6E616EDE
:0C23780000696E66006F7666002E0000A3
:00000001FF
